{
  "contractName": "SupplyChain",
  "abi": [
    {
      "anonymous": false,
      "inputs": [
        {
          "indexed": false,
          "internalType": "uint256",
          "name": "productId",
          "type": "uint256"
        },
        {
          "indexed": false,
          "internalType": "enum SupplyChain.Status",
          "name": "status",
          "type": "uint8"
        },
        {
          "indexed": false,
          "internalType": "string",
          "name": "metadata",
          "type": "string"
        },
        {
          "indexed": false,
          "internalType": "address",
          "name": "author",
          "type": "address"
        },
        {
          "indexed": false,
          "internalType": "uint256",
          "name": "price",
          "type": "uint256"
        }
      ],
      "name": "RegisteredStep",
      "type": "event"
    },
    {
      "inputs": [
        {
          "internalType": "uint256",
          "name": "productId",
          "type": "uint256"
        },
        {
          "internalType": "uint256",
          "name": "readyForPickUpPrice",
          "type": "uint256"
        },
        {
          "internalType": "uint256",
          "name": "pickedUpPrice",
          "type": "uint256"
        },
        {
          "internalType": "uint256",
          "name": "readyForDeliveryPrice",
          "type": "uint256"
        },
        {
          "internalType": "uint256",
          "name": "deliveredPrice",
          "type": "uint256"
        }
      ],
      "name": "registerProduct",
      "outputs": [
        {
          "internalType": "bool",
          "name": "success",
          "type": "bool"
        }
      ],
      "stateMutability": "nonpayable",
      "type": "function"
    },
    {
      "inputs": [
        {
          "internalType": "uint256",
          "name": "productId",
          "type": "uint256"
        },
        {
          "internalType": "string",
          "name": "metadata",
          "type": "string"
        }
      ],
      "name": "registerStep",
      "outputs": [
        {
          "internalType": "bool",
          "name": "success",
          "type": "bool"
        }
      ],
      "stateMutability": "payable",
      "type": "function",
      "payable": true
    },
    {
      "inputs": [
        {
          "internalType": "uint256",
          "name": "productId",
          "type": "uint256"
        },
        {
          "internalType": "uint256",
          "name": "stepIndex",
          "type": "uint256"
        }
      ],
      "name": "getStep",
      "outputs": [
        {
          "internalType": "enum SupplyChain.Status",
          "name": "",
          "type": "uint8"
        },
        {
          "internalType": "string",
          "name": "",
          "type": "string"
        },
        {
          "internalType": "uint256",
          "name": "",
          "type": "uint256"
        },
        {
          "internalType": "address",
          "name": "",
          "type": "address"
        }
      ],
      "stateMutability": "view",
      "type": "function",
      "constant": true
    },
    {
      "inputs": [
        {
          "internalType": "uint256",
          "name": "productId",
          "type": "uint256"
        }
      ],
      "name": "getStepsCount",
      "outputs": [
        {
          "internalType": "uint256",
          "name": "",
          "type": "uint256"
        }
      ],
      "stateMutability": "view",
      "type": "function",
      "constant": true
    },
    {
      "inputs": [
        {
          "internalType": "uint256",
          "name": "productId",
          "type": "uint256"
        },
        {
          "internalType": "enum SupplyChain.Status",
          "name": "status",
          "type": "uint8"
        }
      ],
      "name": "getPrice",
      "outputs": [
        {
          "internalType": "uint256",
          "name": "",
          "type": "uint256"
        }
      ],
      "stateMutability": "view",
      "type": "function",
      "constant": true
    }
  ],
  "bytecode": "0x608060405234801561001057600080fd5b506112ae806100206000396000f3fe60806040526004361061004a5760003560e01c80634db045081461004f57806378cc16ac1461008f578063bda9a055146100cc578063c0a027f414610109578063d21cb5f114610146575b600080fd5b34801561005b57600080fd5b5061007660048036038101906100719190610ab3565b610176565b6040516100869493929190610c53565b60405180910390f35b34801561009b57600080fd5b506100b660048036038101906100b19190610c9f565b610294565b6040516100c39190610d35565b60405180910390f35b3480156100d857600080fd5b506100f360048036038101906100ee9190610d50565b610536565b6040516101009190610d7d565b60405180910390f35b34801561011557600080fd5b50610130600480360381019061012b9190610dbd565b610558565b60405161013d9190610d7d565b60405180910390f35b610160600480360381019061015b9190610e62565b6105ad565b60405161016d9190610d35565b60405180910390f35b60006060600080600080600088815260200190815260200160002060000186815481106101a6576101a5610ec2565b5b906000526020600020906004020190508060000160009054906101000a900460ff168160010182600201548360030160009054906101000a900473ffffffffffffffffffffffffffffffffffffffff1682805461020290610f20565b80601f016020809104026020016040519081016040528092919081815260200182805461022e90610f20565b801561027b5780601f106102505761010080835404028352916020019161027b565b820191906000526020600020905b81548152906001019060200180831161025e57829003601f168201915b5050505050925094509450945094505092959194509250565b60008060008088815260200190815260200160002060000180549050146102f0576040517f08c379a00000000000000000000000000000000000000000000000000000000081526004016102e790610f9d565b60405180910390fd5b600080600088815260200190815260200160002090508060000160405180608001604052806000600481111561032957610328610af3565b5b8152602001604051806020016040528060008152508152602001600081526020013373ffffffffffffffffffffffffffffffffffffffff16815250908060018154018082558091505060019003906000526020600020906004020160009091909190915060008201518160000160006101000a81548160ff021916908360048111156103b8576103b7610af3565b5b021790555060208201518160010190805190602001906103d99291906109d0565b506040820151816002015560608201518160030160006101000a81548173ffffffffffffffffffffffffffffffffffffffff021916908373ffffffffffffffffffffffffffffffffffffffff1602179055505050858160010160006001600481111561044857610447610af3565b5b600481111561045a57610459610af3565b5b815260200190815260200160002081905550848160010160006002600481111561048757610486610af3565b5b600481111561049957610498610af3565b5b81526020019081526020016000208190555083816001016000600360048111156104c6576104c5610af3565b5b60048111156104d8576104d7610af3565b5b8152602001908152602001600020819055508281600101600060048081111561050457610503610af3565b5b600481111561051657610515610af3565b5b815260200190815260200160002081905550600191505095945050505050565b6000806000838152602001908152602001600020600001805490509050919050565b6000806000848152602001908152602001600020600101600083600481111561058457610583610af3565b5b600481111561059657610595610af3565b5b815260200190815260200160002054905092915050565b6000806000808681526020019081526020016000206000018054905011610609576040517f08c379a000000000000000000000000000000000000000000000000000000000815260040161060090611009565b60405180910390fd5b60008060008681526020019081526020016000209050600081600001905060006001826001848054905061063d9190611058565b8154811061064e5761064d610ec2565b5b906000526020600020906004020160000160009054906101000a900460ff16600481111561067f5761067e610af3565b5b610689919061108c565b905060048081111561069e5761069d610af3565b5b8111156106e0576040517f08c379a00000000000000000000000000000000000000000000000000000000081526004016106d79061112e565b60405180910390fd5b60008160048111156106f5576106f4610af3565b5b9050600084600101600083600481111561071257610711610af3565b5b600481111561072457610723610af3565b5b815260200190815260200160002054905080341015610778576040517f08c379a000000000000000000000000000000000000000000000000000000000815260040161076f906111c0565b60405180910390fd5b600081111561081f576000846001856107919190611058565b815481106107a2576107a1610ec2565b5b906000526020600020906004020160030160009054906101000a900473ffffffffffffffffffffffffffffffffffffffff1690508073ffffffffffffffffffffffffffffffffffffffff166108fc839081150290604051600060405180830381858888f1935050505015801561081c573d6000803e3d6000fd5b50505b6000604051806080016040528084600481111561083f5761083e610af3565b5b81526020018a8a8080601f016020809104026020016040519081016040528093929190818152602001838380828437600081840152601f19601f8201169050808301925050505050505081526020018381526020013373ffffffffffffffffffffffffffffffffffffffff1681525090508560000181908060018154018082558091505060019003906000526020600020906004020160009091909190915060008201518160000160006101000a81548160ff0219169083600481111561090957610908610af3565b5b0217905550602082015181600101908051906020019061092a9291906109d0565b506040820151816002015560608201518160030160006101000a81548173ffffffffffffffffffffffffffffffffffffffff021916908373ffffffffffffffffffffffffffffffffffffffff16021790555050507f3e9a0bce1448a8377baf91171594cf9f7664bfb076d87b57e41d1fa1c5d85e3a8a848b8b33876040516109b79695949392919061121c565b60405180910390a1600196505050505050509392505050565b8280546109dc90610f20565b90600052602060002090601f0160209004810192826109fe5760008555610a45565b82601f10610a1757805160ff1916838001178555610a45565b82800160010185558215610a45579182015b82811115610a44578251825591602001919060010190610a29565b5b509050610a529190610a56565b5090565b5b80821115610a6f576000816000905550600101610a57565b5090565b600080fd5b600080fd5b6000819050919050565b610a9081610a7d565b8114610a9b57600080fd5b50565b600081359050610aad81610a87565b92915050565b60008060408385031215610aca57610ac9610a73565b5b6000610ad885828601610a9e565b9250506020610ae985828601610a9e565b9150509250929050565b7f4e487b7100000000000000000000000000000000000000000000000000000000600052602160045260246000fd5b60058110610b3357610b32610af3565b5b50565b6000819050610b4482610b22565b919050565b6000610b5482610b36565b9050919050565b610b6481610b49565b82525050565b600081519050919050565b600082825260208201905092915050565b60005b83811015610ba4578082015181840152602081019050610b89565b83811115610bb3576000848401525b50505050565b6000601f19601f8301169050919050565b6000610bd582610b6a565b610bdf8185610b75565b9350610bef818560208601610b86565b610bf881610bb9565b840191505092915050565b610c0c81610a7d565b82525050565b600073ffffffffffffffffffffffffffffffffffffffff82169050919050565b6000610c3d82610c12565b9050919050565b610c4d81610c32565b82525050565b6000608082019050610c686000830187610b5b565b8181036020830152610c7a8186610bca565b9050610c896040830185610c03565b610c966060830184610c44565b95945050505050565b600080600080600060a08688031215610cbb57610cba610a73565b5b6000610cc988828901610a9e565b9550506020610cda88828901610a9e565b9450506040610ceb88828901610a9e565b9350506060610cfc88828901610a9e565b9250506080610d0d88828901610a9e565b9150509295509295909350565b60008115159050919050565b610d2f81610d1a565b82525050565b6000602082019050610d4a6000830184610d26565b92915050565b600060208284031215610d6657610d65610a73565b5b6000610d7484828501610a9e565b91505092915050565b6000602082019050610d926000830184610c03565b92915050565b60058110610da557600080fd5b50565b600081359050610db781610d98565b92915050565b60008060408385031215610dd457610dd3610a73565b5b6000610de285828601610a9e565b9250506020610df385828601610da8565b9150509250929050565b600080fd5b600080fd5b600080fd5b60008083601f840112610e2257610e21610dfd565b5b8235905067ffffffffffffffff811115610e3f57610e3e610e02565b5b602083019150836001820283011115610e5b57610e5a610e07565b5b9250929050565b600080600060408486031215610e7b57610e7a610a73565b5b6000610e8986828701610a9e565b935050602084013567ffffffffffffffff811115610eaa57610ea9610a78565b5b610eb686828701610e0c565b92509250509250925092565b7f4e487b7100000000000000000000000000000000000000000000000000000000600052603260045260246000fd5b7f4e487b7100000000000000000000000000000000000000000000000000000000600052602260045260246000fd5b60006002820490506001821680610f3857607f821691505b602082108103610f4b57610f4a610ef1565b5b50919050565b7f546869732070726f6475637420616c7265616479206578697374730000000000600082015250565b6000610f87601b83610b75565b9150610f9282610f51565b602082019050919050565b60006020820190508181036000830152610fb681610f7a565b9050919050565b7f546869732070726f6475637420646f6573206e6f742065786973740000000000600082015250565b6000610ff3601b83610b75565b9150610ffe82610fbd565b602082019050919050565b6000602082019050818103600083015261102281610fe6565b9050919050565b7f4e487b7100000000000000000000000000000000000000000000000000000000600052601160045260246000fd5b600061106382610a7d565b915061106e83610a7d565b92508282101561108157611080611029565b5b828203905092915050565b600061109782610a7d565b91506110a283610a7d565b9250827fffffffffffffffffffffffffffffffffffffffffffffffffffffffffffffffff038211156110d7576110d6611029565b5b828201905092915050565b7f5468652070726f6475637420686173206e6f206d6f7265207374657073000000600082015250565b6000611118601d83610b75565b9150611123826110e2565b602082019050919050565b600060208201905081810360008301526111478161110b565b9050919050565b7f596f75206e65656420746f20706179207468652072657175697265642070726960008201527f6365000000000000000000000000000000000000000000000000000000000000602082015250565b60006111aa602283610b75565b91506111b58261114e565b604082019050919050565b600060208201905081810360008301526111d98161119d565b9050919050565b82818337600083830152505050565b60006111fb8385610b75565b93506112088385846111e0565b61121183610bb9565b840190509392505050565b600060a0820190506112316000830189610c03565b61123e6020830188610b5b565b81810360408301526112518186886111ef565b90506112606060830185610c44565b61126d6080830184610c03565b97965050505050505056fea2646970667358221220933f19253d8ce26f3d6530dddd435d95817c9348891d7ee60c5500029cec9f1b64736f6c634300080d0033",
  "immutableReferences": {},
  "source": "// SPDX-License-Identifier: MIT\r\npragma solidity >=0.7.0 <0.9.0;\r\n\r\ncontract SupplyChain {\r\n\r\n    // Struct representing a step in the supply chain\r\n    struct Step {\r\n        Status status;    // The status of the product in this step\r\n        string metadata;  // Additional information about this step\r\n        uint256 price;    // The price associated with this step\r\n        address author;   // The address of the entity that recorded this step\r\n    }\r\n\r\n    // Struct representing a product in the supply chain\r\n    struct Product {\r\n        Step[] steps;                       // Array of steps the product has gone through\r\n        mapping(Status => uint256) prices;  // Mapping from Status to the price for that status\r\n    }\r\n\r\n    // Enum representing the different possible statuses in the supply chain\r\n    enum Status {\r\n        CREATED,              // The product has been created\r\n        READY_FOR_PICK_UP,    // The product is ready to be picked up\r\n        PICKED_UP,            // The product has been picked up\r\n        READY_FOR_DELIVERY,   // The product is ready to be delivered\r\n        DELIVERED             // The product has been delivered\r\n    }\r\n\r\n    // Event emitted when a new step is registered\r\n    event RegisteredStep (\r\n        uint productId,      // The ID of the product\r\n        Status status,       // The status of the product in this step\r\n        string metadata,     // Additional information about this step\r\n        address author,      // The address of the entity that recorded this step\r\n        uint256 price        // The price associated with this step\r\n    );\r\n\r\n    // Mapping from product ID to the product data\r\n    mapping(uint => Product) private products;\r\n\r\n    // Function to register a new product\r\n    function registerProduct(\r\n        uint productId,\r\n        uint256 readyForPickUpPrice,\r\n        uint256 pickedUpPrice,\r\n        uint256 readyForDeliveryPrice,\r\n        uint256 deliveredPrice\r\n    ) public returns (bool success) {\r\n        // Ensure the product does not already exist\r\n        require(products[productId].steps.length == 0, \"This product already exists\");\r\n\r\n        // Initialize the product with the CREATED status\r\n        Product storage product = products[productId];\r\n        product.steps.push(Step(Status.CREATED, \"\", 0, msg.sender));\r\n\r\n        // Set the prices for the different statuses\r\n        product.prices[Status.READY_FOR_PICK_UP] = readyForPickUpPrice;\r\n        product.prices[Status.PICKED_UP] = pickedUpPrice;\r\n        product.prices[Status.READY_FOR_DELIVERY] = readyForDeliveryPrice;\r\n        product.prices[Status.DELIVERED] = deliveredPrice;\r\n\r\n        return true;\r\n    }\r\n\r\n    // Function to register a new step for a product\r\n    function registerStep(\r\n        uint productId,\r\n        string calldata metadata\r\n    ) public payable returns (bool success) {\r\n        // Ensure the product exists\r\n        require(products[productId].steps.length > 0, \"This product does not exist\");\r\n\r\n        // Get the product and its steps\r\n        Product storage product = products[productId];\r\n        Step[] storage stepsArray = product.steps;\r\n\r\n        // Determine the next status for the product\r\n        uint currentStatus = uint(stepsArray[stepsArray.length - 1].status) + 1;\r\n        if (currentStatus > uint(Status.DELIVERED)) {\r\n            revert(\"The product has no more steps\");\r\n        }\r\n\r\n        Status nextStatus = Status(currentStatus);\r\n\r\n        // Get the required price for the next status\r\n        uint256 requiredPrice = product.prices[nextStatus];\r\n\r\n        // Ensure the sender has paid the required price\r\n        if (msg.value < requiredPrice) {\r\n            revert(\"You need to pay the required price\");\r\n        }\r\n\r\n        // If a payment is required, transfer the amount to the previous step's author\r\n        if (requiredPrice > 0) {\r\n            address payable _to = payable(stepsArray[currentStatus - 1].author);\r\n            _to.transfer(requiredPrice);\r\n        }\r\n\r\n        // Register the new step\r\n        Step memory newStep = Step(\r\n            nextStatus,\r\n            metadata,\r\n            requiredPrice,\r\n            msg.sender\r\n        );\r\n        product.steps.push(newStep);\r\n\r\n        // Emit the event for the new step\r\n        emit RegisteredStep(\r\n            productId,\r\n            nextStatus,\r\n            metadata,\r\n            msg.sender,\r\n            requiredPrice\r\n        );\r\n\r\n        return true;\r\n    }\r\n\r\n    // Public function to get details of a specific step for a product\r\n    function getStep(uint productId, uint stepIndex) public view returns (Status, string memory, uint256, address) {\r\n        Step storage step = products[productId].steps[stepIndex];\r\n        return (step.status, step.metadata, step.price, step.author);\r\n    }\r\n\r\n    // Public function to get the number of steps a product has gone through\r\n    function getStepsCount(uint productId) public view returns (uint) {\r\n        return products[productId].steps.length;\r\n    }\r\n\r\n    // Public function to get the price associated with a specific status for a product\r\n    function getPrice(uint productId, Status status) public view returns (uint256) {\r\n        return products[productId].prices[status];\r\n    }\r\n}\r\n",
  "sourcePath": "C:\\Users\\alvar\\OneDrive\\Escritorio (1)\\platzi\\generalSupplyChain\\contracts\\supplyChain.sol",
  "compiler": {
    "name": "solc",
    "version": "0.8.13+commit.abaa5c0e.Emscripten.clang"
  },
  "schemaVersion": "3.4.16",
  "updatedAt": "2024-07-30T21:11:33.355Z",
  "networkType": "ethereum",
  "devdoc": {
    "kind": "dev",
    "methods": {},
    "version": 1
  },
  "userdoc": {
    "kind": "user",
    "methods": {},
    "version": 1
  }
}